:100000000C9459000C9481000C9481000C94810094
:100010000C9481000C9481000C9481000C9481005C
:100020000C9481000C9481000C9481000C9481004C
:100030000C9481000C9481000C9481000C9481003C
:100040000C9438070C9481000C94A8070C94820738
:100050000C9481000C9481000C9481000C9481001C
:100060000C94DA070C9481000000000025002800A1
:100070002B00040404040404040402020202020229
:10008000030303030303010204081020408001025C
:1000900004081020010204081020000000080002DB
:1000A0000100000304070000000000000000F90840
:1000B000BF0D11241FBECFEFD8E0DEBFCDBF11E0D2
:1000C000A0E0B1E0EAEEF3E202C005900D92AE3C92
:1000D000B107D9F723E0AEECB1E001C01D92A43A1C
:1000E000B207E1F710E0C8E5D0E004C02197FE01B7
:1000F0000E94D90FC735D107C9F70E9447090C9450
:10010000E8110C94000090E0FC01E656FF4F2491AA
:10011000FC01EA57FF4F3491FC01EE58FF4FE49188
:10012000EE23C9F0222339F0233001F1A8F4213065
:1001300019F1223029F1F0E0EE0FFF1FE859FF4FCF
:10014000A591B4918FB7F894EC91611126C03095C8
:100150003E233C938FBF08952730A9F02830C9F083
:10016000243049F7809180008F7D03C0809180000A
:100170008F7780938000DFCF84B58F7784BDDBCF0E
:1001800084B58F7DFBCF8091B0008F778093B000D6
:10019000D2CF8091B0008F7DF9CF3E2BDACF8E5039
:1001A000806480937C0080917A00806480937A00E0
:1001B00080917A0086FDFCCF809178009091790043
:1001C00008953FB7F8948091DC029091DD02A091F0
:1001D000DE02B091DF0226B5A89B05C02F3F19F0C3
:1001E0000196A11DB11D3FBFBA2FA92F982F8827B7
:1001F000BC01CD01620F711D811D911D42E0660F92
:10020000771F881F991F4A95D1F708958F929F9263
:10021000AF92BF92CF92DF92EF92FF924B015C01BF
:100220000E94E1006B017C010E94E1006C197D09D4
:100230008E099F09683E734081059105A8F321E06E
:10024000821A9108A108B10888EEC80E83E0D81E72
:10025000E11CF11C81149104A104B10429F7FF9061
:10026000EF90DF90CF90BF90AF909F908F900895C8
:1002700008950895AF92BF92CF92DF92EF92FF92CE
:100280000F931F93CF93DF936C017B018B01040FBE
:10029000151FEB015E01AE18BF08C017D10759F05A
:1002A0006991D601ED91FC910190F081E02DC6019C
:1002B0000995892B79F7C501DF91CF911F910F9196
:1002C000FF90EF90DF90CF90BF90AF900895FC012A
:1002D000538D448D252F30E0842F90E0821B930BAB
:1002E000541710F0CF96089501970895FC01918D51
:1002F000828D981761F0A28DAE0FBF2FB11D5D9654
:100300008C91928D9F5F9F73928F90E008958FEFF5
:100310009FEF08952FB7F8948091E0029091E10249
:10032000A091E202B091E3022FBF8093EC02909380
:10033000ED02A093EE02B093EF0284EE92E00E94F1
:10034000760197FF26C02FB7F8948091E002909134
:10035000E102A091E202B091E3022FBF4091EC02D2
:100360005091ED026091EE027091EF02841B950BAB
:10037000A60BB70B4091E8025091E9026091EA02A6
:100380007091EB0284179507A607B707B0F28FEFBD
:100390009FEF0895FC01918D828D981731F0828D29
:1003A000E80FF11D858D90E008958FEF9FEF089580
:1003B000FC01918D228D892F90E0805C9F4F821BE4
:1003C00091098F739927089584EE92E00E94D801D5
:1003D00021E0892B09F420E0822F089580E090E04D
:1003E000892B29F00E94E40181110C9400000895EA
:1003F000FC01A48DA80FB92FB11DA35ABF4F2C919A
:10040000848D90E001968F739927848FA689B78990
:100410002C93A089B1898C91837080648C93938D87
:10042000848D981306C00288F389E02D80818F7D2A
:1004300080830895EF92FF920F931F93CF93DF93E2
:10044000EC0181E0888F9B8D8C8D98131AC0E88910
:10045000F989808185FF15C09FB7F894EE89FF89DF
:100460006083E889F98980818370806480839FBF7D
:1004700081E090E0DF91CF911F910F91FF90EF907D
:100480000895F62E0B8D10E00F5F1F4F0F7311278D
:10049000E02E8C8D8E110CC00FB607FCFACFE889C8
:1004A000F989808185FFF5CFCE010E94F801F1CF57
:1004B000EB8DEC0FFD2FF11DE35AFF4FF0829FB73C
:1004C000F8940B8FEA89FB8980818062CFCFCF932C
:1004D000DF93EC01888D8823B9F0AA89BB89E8896C
:1004E000F9898C9185FD03C0808186FD0DC00FB612
:1004F00007FCF7CF8C9185FFF2CF808185FFEDCF90
:10050000CE010E94F801E9CFDF91CF9108950895BF
:1005100020911002260F3327331F21323105ECF4CE
:1005200020915902FC0190E080E0243069F082E0E3
:100530000895A09110022191AC0140515E4FA40F8B
:10054000B52FB11D2C930196861798F38091100258
:10055000680F6093100280E0089581E00895109282
:10056000590281E0809358021092330261E082E1E7
:100570000E94830061E083E10E948300E9EBF0E0E8
:1005800080818E7F808380818D7F808388E48093CB
:10059000B80085E48093BC000895CF93DF9391E089
:1005A0009093EF018823B9F0C091B800D091BA00C0
:1005B0008091BC008A7B8093BC0060E082E10E9455
:1005C000830060E083E10E9483000E94AF02D09329
:1005D000BA00C093B800DF91CF9108950895E091DB
:1005E000880280918702E81730F4F0E0E153FE4F73
:1005F000808190E008958FEF9FEF08959091880299
:10060000809187022FEF3FEF981748F4E92FF0E031
:10061000E153FE4F208130E09F5F90938802C90133
:1006200008958091870290918802891B990B089503
:10063000CF92DF92EF92FF920F931F93CF93DF93AE
:100640007C01CB018A0120915F02222389F0EB011A
:100650006B01C40ED51ECC15DD0569F06991D7017B
:10066000ED91FC910190F081E02DC7010995F3CF48
:10067000642F0E948802C801DF91CF911F910F91D2
:10068000FF90EF90DF90CF900895CF93DF931F926C
:10069000CDB7DEB7698320915F022223F9F0209164
:1006A0008502203258F021E030E0FC0133832283C0
:1006B00090E080E00F90DF91CF91089580918602C5
:1006C000E82FF0E0E05AFD4F998190838F5F80938F
:1006D00086028093850281E090E0ECCF61E0CE015C
:1006E00001960E948802F7CFCF92DF92EF92FF929D
:1006F0000F931F93CF93DF93FC01C48121E02093DC
:100700005F02C09380021092860210928502848557
:10071000682B81E893E00E944503D0918502D13295
:1007200008F092C00E94E1006B017C0180915902A7
:10073000811165C082E08093590281E08093580264
:100740008FEF8093570210925602D0935502A0E685
:10075000B2E0E5E3F2E080E0D81385C01092340205
:1007600080913402CC0FC82BC093340280913302A5
:10077000813009F07CC0109233020E94E1006B01CD
:100780007C01809134028093BB0080915B02909148
:100790005C02A0915D02B0915E02892B8A2B8B2BAB
:1007A00099F00E94E10000915B0210915C0220919F
:1007B0005D0230915E026C197D098E099F09061752
:1007C000170728073907E0F18091BC0083FDD9CFD6
:1007D00085EC8093BC000E94E1006B017C0180915C
:1007E0005902823009F445C0809157028F3F61F170
:1007F00080915702803241F18091570225C080914B
:100800005B0290915C02A0915D02B0915E02892B27
:100810008A2B8B2B09F48ACF0E94E10000915B02A6
:1008200010915C0220915D0230915E026C197D098D
:100830008E099F09061717072807390708F076CF92
:1008400080915A020E94CD02109286021092850277
:1008500010925F02DF91CF911F910F91FF90EF9067
:10086000DF90CF9008959D9191938F5F75CF85EE26
:10087000B0CF80915B0290915C02A0915D02B0913B
:100880005E02892B8A2B8B2B09F4A9CF0E94E100F1
:1008900000915B0210915C0220915D0230915E023A
:1008A0006C197D098E099F09061717072807390754
:1008B00008F095CFC5CF90E080E008950F931F9387
:1008C000CF938C01C62F0E9474036C2F6460C80103
:1008D0000E9474036C2F6B7FC8010E94740383EC29
:1008E00090E00197F1F7CF911F910F9108950F9329
:1008F0001F93CF93DF938C01D62FC42F607F642B7F
:100900000E945E0480E1D89FB00111246C2BC801C5
:10091000DF91CF911F910F910C945E04CF93DF93E1
:10092000CDB7DEB728970FB6F894DEBF0FBECDBFA8
:1009300098E0EEE0F1E0DE01119601900D929A95BB
:10094000E1F790919B03961710F46FEF690F262F34
:1009500030E0220F331F41E050E04C0F5D1F240FA9
:10096000351FF9016081680F606840E083E993E01A
:1009700028960FB6F894DEBF0FBECDBFDF91CF91A2
:100980000C947704CF93DF93EB014C815D8120E1E0
:1009900030E0241B350B37FD20E0682F822F0E94AA
:1009A0008E044C815D816881798183E993E0DF91D8
:1009B000CF910C943A01CF93DF93EB014C815D8191
:1009C00020E130E0241B350B36952795682F822FC8
:1009D0000E948E044C815D816881798183E993E076
:1009E000DF91CF910C943A0140E061E083E993E01C
:1009F0000E9477048BE39FE10197F1F780919C03BC
:100A0000882321F060E080E00C948E04089541E09A
:100A10000E94770481E090E00895FB01019000209E
:100A2000E9F73197AF01461B570BDC01ED91FC91C3
:100A30000280F381E02D0994CF93DF93BC0184EE13
:100A400092E00E940D05EC0166E471E084EE92E014
:100A50000E940D058C0F9D1FDF91CF910895CF92BD
:100A6000DF92EF92FF920F931F93CF93DF93CDB757
:100A7000DEB7A1970FB6F894DEBF0FBECDBF9C01C5
:100A8000990F440B550B19A28E010F5D1F4F8AE081
:100A9000C82ED12CE12CF12CCA01B901A701960175
:100AA0000E946B0F605DF80162938F012115310583
:100AB0004105510589F790E080E0309729F0BF01AA
:100AC00083E993E00E940D05A1960FB6F894DEBF6E
:100AD0000FBECDBFDF91CF911F910F91FF90EF908F
:100AE000DF90CF900895AF92BF92CF92DF92EF92B6
:100AF000FF920F931F93CF93DF93DC01CD90DC9097
:100B00001197C114D10439F01496CD91DC918C0168
:100B10007601209761F4DF91CF911F910F91FF90A3
:100B2000EF90DF90CF90BF90AF900895750157017F
:100B3000BFEFAB1ABB0AF7018081082E000C990B9E
:100B40000E94E80D892B91F72197CC0DDD1D88813E
:100B5000082E000C990B0E94E80D892B29F0CE1568
:100B6000DF0510F02197F3CFAE014F5F5F4F4E19B5
:100B70005F09D80115965C934E931497CE14DF0449
:100B800020F4B701C6010E94C111D801ED91FC917A
:100B9000119714968D919C91E80FF91F1082BBCF8D
:100BA0000F931F93CF93DF93EC0188819981009776
:100BB00059F02A813B812617370730F081E0DF9119
:100BC000CF911F910F9108958B016F5F7F4F0E940E
:100BD0000411009759F0998388831B830A832C8121
:100BE0003D81232B59F7FC011082E8CF80E0E7CF4D
:100BF000EF92FF920F931F93CF93DF9361157105CF
:100C000041F480E0DF91CF911F910F91FF90EF9021
:100C1000089541155105B1F07B01EC010C811D8156
:100C2000040F151FB8010E94D005882351F32881B5
:100C300039818C819D81B701820F931F0E94D3114E
:100C40001D830C8381E0DECFCF93DF93EC0188819D
:100C50009981009711F00E947B10198218821D82E1
:100C60001C821B821A82DF91CF910895CF93DF936C
:100C7000EC0141E050E069E471E00E94F805811167
:100C800003C0CE010E942406CE01DF91CF910895CA
:100C9000EF92FF920F931F93CF93DF93EC017B01B1
:100CA0008A01BA010E94D00581110BC0CE010E94B9
:100CB0002406CE01DF91CF911F910F91FF90EF900D
:100CC00008951D830C83B701888199810E94D311F7
:100CD000F0CFFB0101900020E9F73197AF01461BEF
:100CE000570B0C9448060F931F93CF93DF93CDB708
:100CF000DEB762970FB6F894DEBF0FBECDBF8C0192
:100D0000CB01F801118210821382128215821482A3
:100D10004AE0BE016F5F7F4F0E94C30DBE016F5F4F
:100D20007F4FC8010E94690662960FB6F894DEBF35
:100D30000FBECDBFDF91CF911F910F910895CF933B
:100D4000DF93EC01FB018617970749F06081718101
:100D50006115710541F0448155810E944806CE011C
:100D6000DF91CF9108950E942406F9CFFC011182F2
:100D7000108213821282158214820C949F06FC0149
:100D8000118210821382128215821482FB0101905B
:100D90000020E9F73197AF01461B570B0C9448062A
:100DA000FC0180819181009711F00C947B100895D3
:100DB00085ED8093BC0080915B0290915C02A091D4
:100DC0005D02B0915E020796A11DB11D23E0B695AC
:100DD000A795979587952A95D1F72091BC0024FD7A
:100DE00003C010925902089540915B0250915C0239
:100DF00060915D0270915E02452B462B472B69F393
:100E00000097A105B10541F02AE22A95F1F700C04B
:100E10000197A109B109E1CF80915A020C94CD024A
:100E20000F931F93CF93DF938C01D0E0C0E0D801E4
:100E300014968D919C91159760E0C817D90748F4D6
:100E4000ED91FC91309789F41092CE01EEECF1E037
:100E50006081CE010E94070F2196C031D10539F77C
:100E6000DF91CF911F910F910895EC0FFD1FF0CFEF
:100E70001F920F920FB60F9211242F933F938F93CF
:100E80009F93AF93BF938091E0029091E102A09174
:100E9000E202B091E3023091DB0223E0230F2D3711
:100EA00058F50196A11DB11D2093DB028093E0024D
:100EB0009093E102A093E202B093E3028091DC02FE
:100EC0009091DD02A091DE02B091DF020196A11D9A
:100ED000B11D8093DC029093DD02A093DE02B093FB
:100EE000DF02BF91AF919F918F913F912F910F9012
:100EF0000FBE0F901F90189526E8230F0296A11D94
:100F0000B11DD2CF1F920F920FB60F9211242F93C3
:100F10003F934F935F936F937F938F939F93AF9381
:100F2000BF93EF93FF9384EE92E00E94F801FF914C
:100F3000EF91BF91AF919F918F917F916F915F9151
:100F40004F913F912F910F900FBE0F901F901895CA
:100F50001F920F920FB60F9211242F938F939F938E
:100F6000EF93FF93E091F402F091F5028081E0911C
:100F7000FA02F091FB0282FD1BC090818091FD027C
:100F80008F5F8F732091FE02821741F0E091FD0286
:100F9000F0E0EC51FD4F958F8093FD02FF91EF91B2
:100FA0009F918F912F910F900FBE0F901F901895CA
:100FB0008081F4CF1F920F920FB60F9211242F93BE
:100FC0003F934F935F936F937F938F939F93AF93D1
:100FD000BF93EF93FF938091B900887F803609F427
:100FE0004AC0F0F5883209F4A7C018F5803109F439
:100FF0009BC0B8F4882309F4F9C0883009F494C080
:10100000FF91EF91BF91AF919F918F917F916F91E0
:101010005F914F913F912F910F900FBE0F901F90B6
:101020001895883109F488C0803251F780935702AF
:1010300014C0803409F49DC040F48033B9F3883380
:10104000F9F68093570285ECB0C0803509F485C06D
:10105000883509F496C0883499F60E94D806D0CF16
:10106000883909F48CC038F5883729F050F488366F
:1010700011F0803729F683E08093590210923202F2
:1010800057C0883809F47BC0803919F0803809F0DE
:10109000B7CF80913202803208F071C0E091320205
:1010A00081E08E0F809332028091BB00F0E0EE5E13
:1010B000FD4F80833DC0803B39F0E0F4803A09F475
:1010C00079C0883A09F09CCF84E08093590210924D
:1010D000110210921002E0918302F09184020995AE
:1010E0008091100281110FC081E080931002109254
:1010F000F00109C0803C09F4A6CF883C09F4A3CFD5
:10110000883B09F07DCFE091110281E08E0F809342
:101110001102F0E0E051FE4F80818093BB0090917E
:1011200011028091100229C0809134028093BB008B
:1011300085EC8093BC0064CF90915602809155025B
:10114000981758F5E091560281E08E0F8093560271
:10115000F0E0EB5CFD4F8081E9CFE091560281E049
:101160008E0F809356028091BB00F0E0EB5CFD4F48
:10117000808390915602809155029817C8F285E8B5
:10118000D8CFE091560281E08E0F80935602809175
:10119000BB00F0E0EB5CFD4F808380915802811131
:1011A0005CCF81E08093330284EA8093BC0010928C
:1011B000590226CF85EC8093BC0010925902809191
:1011C0003202803230F4E0913202F0E0EE5EFD4F08
:1011D00010826091320270E0E0918102F09182020F
:1011E00082E192E00995109232020ACF10925702E2
:1011F00034CFE4EEF2E01382128288EE93E0A0E0B6
:10120000B0E084839583A683B7832AE131E03183FC
:10121000208325EC30E03587248724EC30E03787C5
:10122000268720EC30E0318B208B21EC30E0338BB3
:10123000228B22EC30E0358B248B26EC30E0378B90
:10124000268B118E128E138E148EE1E8F3E013823A
:10125000128284839583A683B7838CE291E0918385
:101260008083E3E9F3E0138212828EE391E09183BD
:101270008083118687E2848380E1828782E083878E
:1012800014866BE471E08DE893E00C94BF06CF9375
:10129000DF93CDB7DEB7AD970FB6F894DEBF0FBEC4
:1012A000CDBF789484B5826084BD84B5816084BDEF
:1012B00085B5826085BD85B5816085BD80916E00F4
:1012C000816080936E001092810080918100826025
:1012D0008093810080918100816080938100809162
:1012E00080008160809380008091B1008460809351
:1012F000B1008091B00081608093B00080917A004D
:10130000846080937A0080917A00826080937A0072
:1013100080917A00816080937A0080917A00806861
:1013200080937A001092C100E091F402F091F502EE
:1013300082E08083E091F002F091F1021082E0916E
:10134000F202F091F3028FEC80831092FC02E091A4
:10135000F802F091F90286E08083E091F602F091C4
:10136000F702808180618083E091F602F091F702BC
:10137000808188608083E091F602F091F70280819D
:1013800080688083E091F602F091F70280818F7D82
:101390008083109288021092870210928602109227
:1013A00085020E94AF0288E391E0909384028093CB
:1013B000830289E391E090938202809381021092EC
:1013C000980380919E03823018F098E090939803E0
:1013D00080939B0362E370E080E090E00E9406014E
:1013E00060919F0383E993E00E94740368EE73E0C9
:1013F00080E090E00E94060160E383E993E00E94B0
:101400005E040BE416E4C8010197F1F760E383E999
:1014100093E00E945E04C8010197F1F760E383E95D
:1014200093E00E945E0483E592E00197F1F760E2A9
:1014300083E993E00E945E0460919803606240E05B
:1014400083E993E00E94770484E08093990340E06D
:101450006CE083E993E00E9477040E94F40482E048
:1014600080939A0340E066E083E993E00E9477046A
:1014700040E062E083E993E00E9477048BE39FE120
:101480000197F1F788E080939F0360E083E993E0A0
:101490000E94740329ED32E049E852E0ADE9B2E080
:1014A00081EB92E0E5EC2E2EE2E03E2EF10111926E
:1014B00011921F01FC0111921192CF011D921D92F8
:1014C000FA0111921192AF012215330579F78E01BD
:1014D0000F5F1F4F6801F12CE12CC7010E94FF0E26
:1014E000F60181936F01FFEFEF1AFF0A20E1E21688
:1014F000F10499F7198AB801CE0142960E94BF06FD
:101500008E899F89892B09F44FC0BE016E5E7F4F83
:101510008DE893E00E949F060E94F40464E571E068
:10152000C8010E94BF06B80190E080E00E94DB0481
:10153000C8010E94D0066DE873E0C8010E94B6069B
:10154000B80181E090E00E94DB04C8010E94D0064F
:101550006CEA7DE080E090E00E9406010E94F404C5
:10156000CE0142960E94D00684EE92E00E94D801FD
:10157000892B09F4AAC068E471E0CE0148960E9464
:10158000BF060E948A0197FD1BC08A309105C1F0F9
:1015900089831A8241E050E0BE016F5F7F4FCE0128
:1015A00048960E94F805EDCF6DE873E0C8010E94EF
:1015B000B606C8010E941007C8010E94D006ACCF31
:1015C000CE0148960E9473056FE571E0CE01019649
:1015D0000E94BF064D815E818C8D9D8D841795077D
:1015E00078F0888D998D009759F069817A8161151D
:1015F000710531F00E94DA11FF24F394892B09F070
:10160000F12CCE0101960E94D0060C8D1D8DFF207D
:1016100009F46AC275E0C72ED12C0530110518F403
:10162000680105E010E068E471E0CE0142960E9496
:10163000BF06EC8CFD8CCE14DF04E0F40E151F0504
:1016400008F47801E88DF98DEE0DFF1D10811082F0
:10165000688D798D6C0D7D1DCE01429661157105E9
:1016600009F43CC20E946906888D998DE80EF91E26
:10167000F7011083CE0142960E9473058E899F89DF
:101680000197409708F02DC2BE016E5E7F4F8DE836
:1016900093E00E949F066DE873E0CE0101960E94E0
:1016A000B606CE0101960E941007CE0101960E9457
:1016B000D00685E691E00E941C05CE0142960E946C
:1016C000D006CE0148960E94D0068EE00E94CF0040
:1016D0006C018FE00E94CF007C0180E10E94CF006E
:1016E0008C0181E10E94CF004091D9025091DA0231
:1016F0009A01220F331FF901EB53FD4FD182C082B3
:10170000F901EF54FD4FF182E082F901E356FD4FFC
:101710001183008327573D4FF901918380834F5FE9
:101720005F4F4A3051050CF025C25093DA024093C6
:10173000D90209E812E01FA30EA34DE952E021EB04
:1017400032E03F8F2E8FA5ECB2E01AA21BA21CA2A2
:101750001DA2C12CD12C7601812C912C540160E06A
:1017600070E0CB010D911D91012E000C220B330B6B
:10177000600F711F821F931FEE8DFF8D01911191DC
:10178000FF8FEE8F012E000C220B330B800E911E6B
:10179000A21EB31EFA0101911191AF01012E000C9E
:1017A000220B330BC00ED11EE21EF31EEEA1FFA1D1
:1017B00061907190FFA3EEA38301770C220B330B92
:1017C0004AA05BA06CA07DA0400E511E621E731E3D
:1017D0004AA25BA26CA27DA22A163B0619F62AE059
:1017E00030E040E050E00E94150FB901330F880B44
:1017F000990B0E94030E2AE038E240EA5BE30E9464
:101800003E0E20E030E048EC52E40E943E0E0E9482
:101810009C0F6E8F7F8F88A399A36E8C7F8CC501E0
:10182000B4012AE030E040E050E00E94150FB90119
:10183000330F880B990B0E94030E2AE038E240EA2E
:101840005BE30E943E0E20E030E048EC52E40E9450
:101850003E0E0E949C0F4B012B01C701B6012AE0EE
:1018600030E040E050E00E94150FD90124E630E05E
:101870000E94D20F2FEF33E040E050E00E94150F9E
:101880007901253631051CF084E6E82EF12CF7FEAF
:1018900002C0F12CE12C6AA17BA18CA19DA12AE0C0
:1018A00030E040E050E00E94150FD90124E630E01E
:1018B0000E94D20F2FEF33E040E050E00E94150F5E
:1018C00089012536310514F004E610E017FF02C047
:1018D00010E000E08091060190910701E816F906FA
:1018E00029F160E080E00E948E0462EB71E083E900
:1018F00093E00E940D0560E083E00E948E0460EC9E
:1019000071E083E993E00E940D0560E083E00E94AE
:101910008E04C7010E942F0566EB71E083E993E016
:101920000E940D05F0920701E092060180910401EA
:10193000909105018017910729F161E080E00E94F4
:101940008E0468EB71E083E993E00E940D0561E08D
:1019500083E00E948E0460EC71E083E993E00E94D2
:101960000D0561E083E00E948E04C8010E942F05EE
:1019700066EB71E083E993E00E940D051093050189
:101980000093040180910201909103016816790689
:1019900009F446C060E088E00E948E046CEB71E0C0
:1019A00083E993E00E940D056E8D7F8DCE014296F6
:1019B0000E94730665EC71E0CE0148960E94BF0656
:1019C0004E895F896A897B89CE0148960E94F80515
:1019D000811104C0CE0148960E942406CE0148968B
:1019E0000E943606BC01CE0101960E94B606BE01D9
:1019F0006F5F7F4F90E080E00E94C204CE010196AD
:101A00000E94D006CE0148960E94D006CE01429692
:101A10000E94D0062E8D3F8D30930301209302014A
:101A200080910001909101014816590609F443C0C4
:101A300061E088E00E948E046CEB71E083E993E042
:101A40000E940D05B401CE0142960E94730669EC16
:101A500071E0CE0148960E94BF064E895F896A896F
:101A60007B89CE0148960E94F805811104C0CE0101
:101A700048960E942406CE0148960E943606BC0174
:101A8000CE0101960E94B606BE016F5F7F4F81E0D6
:101A900090E00E94C204CE0101960E94D006CE01C1
:101AA00048960E94D006CE0142960E94D00690929F
:101AB00001018092000164E670E080E090E00E9405
:101AC000060180E090E0892B09F44ECD0E94E401EC
:101AD000882309F449CD0E94000046CD0E942406C7
:101AE000C3CD84E791E0E7CD012B09F4EACD088D61
:101AF000198D65E871E0C8010E94CA11892BC9F4EB
:101B00006AE871E084EE92E00E940D054091910335
:101B10005091920360918D0370918E0384EE92E058
:101B20000E943A0166E471E084EE92E00E940D05A5
:101B3000C8CD6AE971E0C8010E94CA11892B09F079
:101B4000C0CD6BE471E08DE893E00E9469066DE81A
:101B500073E0CE0101960E94B606CE0101960E9466
:101B60001007CE0101960E94D00680EA91E00E9403
:101B70001C05A7CD1092DA021092D902DACD8DE8B9
:101B800093E00C94D006BB274A3031F4992322F419
:101B9000BDE2909581959F4F0C94CF0DBB27FB0123
:101BA0005527AA27880F991FAA1FA41710F0A41B56
:101BB00083955051B9F7A05DAA3308F0A95DA193B0
:101BC000009779F7B111B1931192CB010C94F10DFB
:101BD00091110C94AB0E803219F089508550C8F7E2
:101BE0000895DC01FC01672F71917723E1F73297AB
:101BF00004C07C916D9370836291AE17BF07C8F3E8
:101C00000895E89409C097FB3EF4909580957095EF
:101C100061957F4F8F4F9F4F9923A9F0F92F96E938
:101C2000BB279395F695879577956795B795F111AD
:101C3000F8CFFAF4BB0F11F460FF1BC06F5F7F4F4A
:101C40008F4F9F4F16C0882311F096E911C077235C
:101C500021F09EE8872F762F05C0662371F096E865
:101C6000862F70E060E02AF09A95660F771F881F34
:101C7000DAF7880F9695879597F908950E94510E87
:101C80000C94C50E0E94B70E38F00E94BE0E20F0D4
:101C9000952311F00C94AE0E0C94B40E11240C94F8
:101CA000F90E0E94D60E70F3959FC1F3950F50E088
:101CB000551F629FF001729FBB27F00DB11D639FFE
:101CC000AA27F00DB11DAA1F649F6627B00DA11DA4
:101CD000661F829F2227B00DA11D621F739FB00D4A
:101CE000A11D621F839FA00D611D221F749F3327BA
:101CF000A00D611D231F849F600D211D822F762F53
:101D00006A2F11249F5750409AF0F1F088234AF02F
:101D1000EE0FFF1FBB1F661F771F881F915050409B
:101D2000A9F79E3F510580F00C94AE0E0C94F90E6D
:101D30005F3FE4F3983ED4F3869577956795B79522
:101D4000F795E7959F5FC1F7FE2B880F911D96953C
:101D5000879597F9089599278827089597F99F6798
:101D600080E870E060E008959FEF80EC0895002423
:101D70000A941616170618060906089500240A94F0
:101D800012161306140605060895092E0394000C76
:101D900011F4882352F0BB0F40F4BF2B11F460FF05
:101DA00004C06F5F7F4F8F4F9F4F089557FD90582E
:101DB000440F551F59F05F3F71F04795880F97FB0F
:101DC000991F61F09F3F79F08795089512161306C9
:101DD0001406551FF2CF4695F1DF08C016161706F8
:101DE0001806991FF1CF869571056105089408952D
:101DF000E894BB2766277727CB0197F90895F999CF
:101E0000FECF92BD81BDF89A992780B50895262FFF
:101E1000F999FECF1FBA92BD81BD20BD0FB6F894CF
:101E2000FA9AF99A0FBE01960895052E97FB1EF4B3
:101E300000940E942C0F57FD07D00E946B0F07FCE7
:101E400003D04EF40C942C0F50954095309521956D
:101E50003F4F4F4F5F4F08959095809570956195D6
:101E60007F4F8F4F9F4F08952F923F924F925F92D7
:101E70006F927F928F929F92AF92BF92CF92DF929A
:101E8000EF92FF920F931F93CF93DF93CDB7DEB7FF
:101E9000CA1BDB0B0FB6F894DEBF0FBECDBF099493
:101EA0002A88398848885F846E847D848C849B84EA
:101EB000AA84B984C884DF80EE80FD800C811B81F8
:101EC000AA81B981CE0FD11D0FB6F894DEBF0FBE27
:101ED000CDBFED010895A1E21A2EAA1BBB1BFD0187
:101EE0000DC0AA1FBB1FEE1FFF1FA217B307E407F9
:101EF000F50720F0A21BB30BE40BF50B661F771F51
:101F0000881F991F1A9469F7609570958095909530
:101F10009B01AC01BD01CF010895A29FB001B39F09
:101F2000C001A39F700D811D1124911DB29F700DE2
:101F3000811D1124911D08950E94A30F6894B11171
:101F40000C94F90E08950E94DE0E88F09F5798F0C9
:101F5000B92F9927B751B0F0E1F0660F771F881FAE
:101F6000991F1AF0BA95C9F714C0B13091F00E94C8
:101F7000F80EB1E008950C94F80E672F782F88279B
:101F8000B85F39F0B93FCCF3869577956795B395EF
:101F9000D9F73EF490958095709561957F4F8F4F5E
:101FA0009F4F08950E948D0FB7FF0895821B930BDA
:101FB0000895EE0FFF1F0590F491E02D09940F9303
:101FC0001F93CF93DF938230910510F482E090E06D
:101FD000E091A203F091A30330E020E0B0E0A0E0A4
:101FE000309799F42115310509F44AC0281B390BA3
:101FF00024303105D8F58A819B816115710589F1FD
:10200000FB0193838283FE0111C0408151810281D3
:10201000138148175907E0F04817590799F41097AA
:1020200061F012960C93129713961C933296CF017F
:10203000DF91CF911F910F9108950093A203109308
:10204000A303F4CF2115310551F04217530738F09F
:10205000A901DB019A01BD01DF01F801C1CFEF0148
:10206000F9CF9093A3038093A203CDCFFE01E20F9B
:10207000F31F819391932250310939832883D7CF5D
:102080002091A0033091A103232B41F420910A0158
:1020900030910B013093A1032093A00320910801FC
:1020A000309109012115310541F42DB73EB740911A
:1020B0000C0150910D01241B350BE091A003F09110
:1020C000A103E217F307A0F42E1B3F0B28173907D3
:1020D00078F0AC014E5F5F4F2417350748F04E0F84
:1020E0005F1F5093A1034093A003819391939FCFCF
:1020F000F0E0E0E09CCFCF93DF930097E9F0FC01A4
:10210000329713821282A091A203B091A303ED0132
:1021100030E020E01097A1F420813181820F931FDD
:102120002091A0033091A1032817390709F061C05D
:10213000F093A103E093A003DF91CF910895EA010A
:10214000CE17DF07E8F54A815B819E0141155105F5
:10215000B1F7E901FB83EA8349915991C40FD51F77
:10216000EC17FD0761F4808191810296840F951F21
:10217000E90199838883828193819B838A83F0E03C
:10218000E0E012968D919C9113970097B9F52D91EF
:102190003C911197CD010296820F931F2091A003CD
:1021A0003091A1032817390739F6309751F510926D
:1021B000A3031092A203B093A103A093A003BCCFEA
:1021C000D383C28340815181840F951FC817D907DB
:1021D00061F44E5F5F4F88819981480F591F518389
:1021E00040838A819B81938382832115310509F085
:1021F000B0CFF093A303E093A2039ECFFD01DC01D7
:10220000C0CF13821282D7CFB0E0A0E0EAE0F1E1C4
:102210000C94360F8C01009751F4CB010E94DF0F14
:102220008C01C801CDB7DEB7E0E10C94520FFC0180
:10223000E60FF71F9C0122503109E217F30708F45B
:102240009DC0D901CD91DC911197C617D70798F0A1
:10225000C530D10530F3CE0104978617970708F3F0
:10226000C61BD70B2297C193D1936D937C93CF015B
:102270000E947B10D6CF5B01AC1ABD0A4C018C0EBC
:102280009D1EA091A203B091A303512C412CF12CCF
:10229000E12C109731F58091A0039091A10388154E
:1022A000990509F05CC04616570608F058C08091A1
:1022B000080190910901009741F48DB79EB74091B4
:1022C0000C0150910D01841B950BE817F90708F0DC
:1022D00055C0F093A103E093A003F90171836083DB
:1022E000A0CF8D919C91119712966C901297139696
:1022F0007C901397A815B90559F56C0142E0C40EFE
:10230000D11CCA14DB0420F1AC014A195B09DA01C3
:102310001296159780F06282738251834083D901AF
:102320006D937C93E114F10471F0D7011396FC9343
:10233000EE93129776CF22968C0F9D1FF901918311
:102340008083F301EFCFF093A303E093A20369CF5F
:102350004816590608F42C017D01D3019ACFCB0110
:102360000E94DF0F7C01009749F0AE01B8010E9486
:10237000C111C8010E947B10870153CF10E000E01B
:1023800050CFFB01DC0102C001900D924150504042
:10239000D8F70895FB01DC018D910190801901109F
:1023A000D9F3990B0895FB01DC0101900D920020F7
:1023B000E1F70895FB01DC014150504030F08D9170
:1023C0000190801919F40020B9F7881B990B089522
:1023D00010E0C8E5D0E004C0FE010E94D90F2196AC
:0A23E000C935D107C9F7F894FFCF03
:1023EA00FFFFFFFFFFFFFFFF0000A40380000000C4
:1023FA00400014005400000000001A023A0167016C
:10240A006702D8017601CA010000000045031803DB
:10241A005B04EE021103FE02EF0200000000070552
:10242A003A015B0487020D0A0043005048415345B4
:10243A004C41420057656C636F6D6520746F004EA6
:10244A00414D453D004E616D6120646973696D704F
:10245A00616E21004D6178203136206B6172616BAB
:10246A00746572210053484F57004E616D612073A5
:10247A0061617420696E693A2000524553455400DF
:10248A005265736574206B652064656661756C744A
:10249A002E0043413A00250043423A0020202020E2
:0E24AA00202020200054413A0054423A000005
:00000001FF
